:03000000021C03DC
:0C1C0300787FE4F6D8FD7581070217EA2F
:1009060000000000000000000000000000000000E1
:1009160000000000000000000000000000000000D1
:1009260000000000000000000000000000000000C1
:1009360000000000000000000000000000000000B1
:1009460000000000000000000000000000000000A1
:100956000000000000000000000000000000000091
:100966000000000000000000000000000000000081
:10097600000000000080C0E0E0E0C0800000000051
:100986000000000000000000000000000000000061
:100996000000000000000000000000000000000051
:1009A600000000000003070F0F0F07030000000000
:1009B6000000000000000000000000000000000031
:1009C6000000000000000000000000000000000021
:1009D6000000000000000000000000000000000011
:1009E6000000000000000000000000000000000001
:1009F60000000000000000000000000000000000F1
:100A060000000000000000000000000000000000E0
:100A160000000000000000000000000000000000D0
:100A260000000000000000000000000000000000C0
:100A360000000000000000000000000000000000B0
:100A460000000000000000000000000000000000A0
:100A56000000000000000000000000000000000090
:100A66000000000000808080808080800000000000
:100A76000000000000000000000000000000000070
:100A8600000000000000000000000000000000E080
:100A9600F8FCFEFFFFFFFFFFFFFFFFFFFFFFFEFC6F
:100AA600F8E0000000000000000000000000000068
:100AB6000000000000000000000000000000000F21
:100AC6003F7FFFFFFFFFFFFFFFFFFFFFFFFFFF7FF0
:100AD6003F0F0000000000000000000000000000C2
:100AE6000000000000000000000000000000000000
:100AF60000000001010303030303030301010000D7
:100B060000000000000000000000000000000000DF
:100B160000000000000000000000000000000000CF
:100B260000000000000000000000000000000000BF
:100B360000000000000000000000000000000000AF
:100B4600000000000000000000000000000000009F
:100B5600000000000000000000000000000000008F
:100B6600000000000000000000000000000000007F
:100B7600000000000000000000000000000000006F
:100B860020C000000004F80000E0100000008060B3
:100B9600100000000000000000000000000000003F
:100BA6000000000000000000000000000020448853
:100BB60088F0F9FEFCFCFFFEFEFFFEFCFCFFF8E8F9
:100BC60044404040402000000000000000000000BB
:100BD6000000000000000000000000000004824247
:100BE60042273F7F7FFFFFFFFFFFFFFF7F7F5F4FB4
:100BF600840404080000000000000000000000005B
:100C060000000000000000000000000000000000DE
:100C1600000000000C03000C030000010E10000091
:100C260000000000000000000000000000000000BE
:100C360000000000000000000000000000000000AE
:100C4600000000000000000000000000000000009E
:100C5600000000000000000000000000000000008E
:100C6600000000000000000000000000000000007E
:100C7600000000000040800000008000000000002E
:100C8600000000000000000000000000000000005E
:100C96000000000000008000000000000418204052
:100CA6008000000000001FE000FF000000804020E0
:100CB600180601000000000000000000000000000F
:100CC6000000000000000001010202828284848884
:100CD6009011222C5060C087FEC1B088464120206A
:100CE60010101010080804040200000000000000A4
:100CF6000000000000804040414121201008080803
:100D060004854523936B1D07FF3BC70B13254585BC
:100D1600090911122242424282000000000000002E
:100D260000000000000000000080402010080402BF
:100D36008160180601000000FF00010EF0000000AF
:100D4600010204081020400000000000000000001E
:100D5600000000000000000000000000000000008D
:100D660000000000000000000F000000000100006D
:100D7600000000000000000000000000000000006D
:100D8600000000000000000000000040408000005D
:100D960000000008F000000000000000E010000065
:100DA600000000804000000000000000000000007D
:100DB60000000000808080808000000000000102AA
:100DC6000C106080011EE0000000E01E0100C02043
:100DD600180402018080404020000000000000004E
:100DE60000000000000080808081414242848488A7
:100DF60010000001000000000000000000030008D1
:100E060004020101000000000000000000000000D4
:100E16000000000000000080804020201010108894
:100E260048200000000000000000000000000080D4
:100E36000005050505090A0A121220000000000037
:100E460000000002010101000010080402010180F7
:100E56006018040300000000FC0000030C70800012
:100E660001020408304000000000000000000000FD
:100E76000000000000000000000000000000020169
:100E860000000000000000001F0000000000010E2E
:100E9600100000000000000000000000000000003C
:100EA600000000000000002020202040404080007C
:100EB6000004788000000000000000E01000000040
:100EC600000000008040000000000000000000005C
:100ED6000000804040404080800000000000000389
:100EE60004000003000000000000000100000000F4
:100EF60000000C020100008080400000000000009D
:100F060000000000000000000001010000000000D9
:100F160000000000000000000000000000000000CB
:100F260000000000000001000000000000000000BA
:100F3600000004028241412121100000000000004F
:100F4600000000000000000000000000000000009B
:100F5600000000000000000024244444444448806B
:100F66000000000000000080402010080000000083
:100F7600C00000000000000000000000000000406B
:100F860080000008102040800000000000000000E3
:100F96000000000000000100000000000000040343
:100FA60000000000000000003F40000000000000BC
:100FB6000106080000000001020000000000000019
:100FC600000000000040402020200000000000003B
:100FD60002041800000000000000003008040000B1
:100FE60000000000008040400000000000000000FB
:100FF60000808080404000000000000000000000EB
:1010060000000000000000000000000000000000DA
:1010160000000000010000000040402020204000A9
:1010260001000000000000000000000000000000B9
:1010360000000000000000000000000000000000AA
:10104600000000000000000000000000000000009A
:10105600001008040480800000000000000000006A
:10106600000000000000000000000000000000007A
:1010760000000000000000000000008088880810C2
:1010860000000201010000008000000000000000D6
:10109600000000000000000000000000000000004A
:1010A60000000000000080000000000000000101B8
:1010B6000000000000040201000000000000300EE5
:1010C600000000000000000070800000000000002A
:1010D6000204182000000001020C000000000000BD
:03000B0002199A3D
:10199A00C0E0C083C082C0D0758A00758C80900078
:1019AA0060E004F0700690005FE004F090005FE0F1
:1019BA00B40B0CA3E0B4B80790005FE4F0A3F0D036
:0819CA00D0D082D083D0E032BE
:0E10E600900006EEF0A3EFF0A3ECF0A3EDF007
:1010F400EF2418FFE43EA3F0A3EFF0ED2403FEE495
:101104003CA3F0A3CEF0A3E4F0A37406F090001285
:101114007480F0A374FFF0E4900010F0A3F090004A
:101124000AA3E0FF7D07121AE4900012E0FF7D019C
:10113400121A70900012E0C3134480F07F0A7E00FC
:10114400121CA1900011E004F07006900010E0045D
:10115400F0C3900011E09408900010E06480948043
:1011640040BC90000EE4F0A37406F090000CE0FE86
:10117400A3E0FFD390000FE09FEE6480F890000E90
:10118400E064809850030212289000127480F0A347
:1011940014F0E4900010F0A3F090000AA3E0FF9094
:1011A400000EA3E0FD121AE4900012E0FF7D01128C
:1011B4001A7090000AA3E0FF90000EA3E004FD1251
:1011C4001AE4900013E0FF7D01121A70900012E0FF
:1011D400C3134480F0A3E0C313F090000EE0FEA319
:1011E400E0FF7C007D051215CDC374289FFFE49EAB
:1011F400FE121CA1900011E004F07006900010E0B3
:1012040004F0C3900011E09408900010E06480940E
:1012140080408690000FE024FFF090000EE034FF41
:10122400F002116F9000127480F0A3743FF0E49008
:101234000010F0A3F090000AA3E0FFA3A3E0FD12C6
:101244001AE4900012E0FF7D01121A7090000AA3C4
:10125400E0FFA3A3E004FD121AE4900013E0FF7D75
:1012640001121A70900012E0C3134480F0A3E0133B
:1012740013543FF090000CE0FEA3E0FF7C007D05DA
:101284001215CDC374289FFFE49EFE121CA190008A
:1012940011E004F07006900010E004F0C390001117
:1012A400E09408900010E0648094804088E490000A
:1012B40010F0A3F0900010E0FEA3E0FFC39407EE4B
:1012C4006480948050467C017D201215CD74062FD5
:1012D400F974093EFA90001874FFF0A3EAF0A3E948
:1012E400F0900006A3E0FFA3A3E0FD900017743084
:1012F400F0FB1216E37F507E00121CA1900011E057
:0F13040004F07006900010E004F080A8021AB404
:1017EA00E490005FF0A3F090005DF0A3F075910320
:1017FA00F592758E80758901F58A758C8012164A64
:10180A00759D01E4F5BD75BCE0D28CE58A75F05092
:10181A0084AFF0900002E4F0A3EFF0A3740BF0A3FE
:10182A0074B8F090000474FFF5F012163445F070A5
:10183A00F2E58A75F00384AFF0900004E4F0A3EFB8
:10184A00F0900002E0FEA3E0FFA3E0FCA3E0FD129B
:0B185A0010E67F2C7E01121CA180B064
:10000E000000000000000000002F000000000700AC
:10001E00070000147F147F1400242A7F2A12006226
:10002E0064081323003649552250000005030000D2
:10003E0000001C224100000041221C000014083E5A
:10004E0008140008083E0808000000A06000000820
:10005E000808080800006060000000201008040274
:10006E00003E5149453E0000427F40000042615132
:10007E004946002141454B31001814127F100027CC
:10008E0045454539003C4A4949300001710905038F
:10009E0000364949493600064949291E00003636C0
:1000AE000000000056360000000814224100001423
:1000BE001414141400004122140800020151090600
:1000CE0000324959513E007C1211127C007F494981
:1000DE004936003E41414122007F4141221C007FB2
:1000EE0049494941007F09090901003E4149497AC0
:1000FE00007F0808087F0000417F4100002040413A
:10010E003F01007F08142241007F40404040007FA5
:10011E00020C027F007F0408107F003E4141413EE9
:10012E00007F09090906003E4151215E007F091931
:10013E0029460046494949310001017F0101003F2E
:10014E004040403F001F2040201F003F4038403FAE
:10015E000063140814630007087008070061514912
:10016E00454300007F41410000552A552A550000A5
:10017E0041417F0000040201020400404040404023
:10018E00000001020400002054545478007F4844BB
:10019E00443800384444442000384444487F0038F2
:1001AE005454541800087E0901020018A4A4A47C1B
:1001BE00007F080404780000447D400000408084E5
:1001CE007D00007F102844000000417F4000007C2D
:1001DE0004180478007C0804047800384444443839
:1001EE0000FC242424180018242418FC007C080485
:1001FE00040800485454542000043F444020003C5E
:10020E004040207C001C2040201C003C4030403CE4
:10021E00004428102844001CA0A0A07C0044645474
:10022E004C441414141414140000000000000000B8
:10023E000000000000000000000000F800000000B8
:10024E00000000333000000000100C06100C0600F9
:10025E00000000000000000040C07840C078400060
:10026E00043F04043F040400007088FC08300000C2
:10027E00001820FF211E0000F008F000E01800001A
:10028E0000211C031E211E0000F0088870000000D3
:10029E001E2123241927211010160E000000000025
:1002AE000000000000000000000000E01804020042
:1002BE00000000071820400000020418E0000000B3
:1002CE000040201807000000404080F080404000B1
:1002DE000202010F01020200000000F00000000007
:1002EE000101011F010101000000000000000000DB
:1002FE0080B0700000000000000000000000000050
:10030E0000010101010101010000000000000000D8
:10031E000030300000000000000000008060180473
:10032E00006018060100000000E010080810E00050
:10033E00000F102020100F00001010F80000000019
:10034E000020203F20200000007008080888700060
:10035E0000302824222130000030088888483000E0
:10036E000018202020110E000000C02010F8000000
:10037E0000070424243F240000F808888808080099
:10038E000019212020110E0000E0108888180000AE
:10039E00000F112020110E0000380808C838080080
:1003AE000000003F00000000007088080888700000
:1003BE00001C222121221C0000E010080810E00081
:1003CE000000312222110F00000000C0C00000000A
:1003DE00000000303000000000000080000000002F
:1003EE000000806000000000000080402010080027
:1003FE0000010204081020004040404040404000F0
:10040E0004040404040404000008102040800000CA
:10041E000020100804020100007048080808F000CF
:10042E000000003036010000C030C828E810E0009F
:10043E000718272423140B000000C038E00000002A
:10044E00203C23020227382008F888888870000094
:10045E00203F202020110E00C03008080808380068
:10046E00071820202010080008F808080810E000DF
:10047E00203F202020100F0008F88888E808100080
:10048E00203F20202320180008F88888E808100054
:10049E00203F200003000000C0300808083800008C
:1004AE0007182020221E020008F808000008F8088D
:1004BE00203F210101213F20000808F80808000014
:1004CE000020203F2020000000000808F808080047
:1004DE00C08080807F00000008F888C028180800BF
:1004EE00203F20012638200008F8080000000000F8
:1004FE00203F20202020300008F8F800F8F80800EF
:10050E00203F003F003F200008F830C00008F808E8
:10051E00203F200007183F00E01008080810E000F8
:10052E000F10202020100F0008F808080808F0000F
:10053E00203F210101010000E01008080810E00032
:10054E000F18242438504F0008F8888888887000C7
:10055E00203F2000030C3020007088080808380067
:10056E000038202121221C00180808F8080818005D
:10057E000000203F2000000008F808000008F808DE
:10058E00001F202020201F000878880000C838088F
:10059E00000007380E010000F80800F80008F80007
:1005AE00033C0700073C03000818688080681808A1
:1005BE0020302C03032C30200838C800C83808001F
:1005CE000000203F2000000010080808C83808006E
:1005DE002038262120201800000000FE0202020012
:1005EE000000007F40404000000C30C000000000C2
:1005FE00000000010638C00000020202FE000000EA
:10060E00004040407F00000000000402020204008F
:10061E0000000000000000000000000000000000CC
:10062E0080808080808080800002020400000000B4
:10063E0000000000000000000000808080800000AC
:10064E000019242222223F2008F80080800000009A
:10065E00003F112020110E0000000080808000005D
:10066E00000E112020201100000000808088F8006C
:10067E00000E112020103F2000008080808000009E
:10068E00001F222222221300008080F08888881802
:10069E000020203F2020000000008080808080000D
:1006AE00006B94949493600008F8008080800000A2
:1006BE00203F210000203F2000809898000000007D
:1006CE000020203F202000000000008098980000AD
:1006DE0000C08080807F000008F8000080808000CD
:1006EE00203F24022D302000000808F800000000F2
:1006FE000020203F202000008080808080808000AD
:10070E00203F20003F20003F80800080808000003E
:10071E00203F210000203F200000808080800000CC
:10072E00001F202020201F008080008080000000FD
:10073E0080FFA12020110E0000000080808080002C
:10074E00000E112020A0FF8080808000808080001D
:10075E0020203F212000010000008080808080004A
:10076E000033242424241900008080E080800000BF
:10077E000000001F2020000080800000008080000C
:10078E00001F202020103F2080808000008080806D
:10079E0000010E30080601008080008000808080FD
:1007AE000F300C030C300F00008080008080800022
:1007BE000020312E0E31200080808000008080804D
:1007CE0080818E70180601000080808080808000FD
:1007DE000021302C2221300000000000807C02021B
:1007EE0000000000003F404000000000FF0000003D
:1007FE0000000000FF0000000002027C80000000EC
:10080E000040403F00000000000601010202040407
:10081E0000000000000000000000F010101010FF9B
:10082E0010101010F000000000000F04040404FF6C
:10083E00040404040F0000004040405F55555575F8
:10084E005555555F404040000040200F09498979B9
:10085E000909090F2040000000FE02424ACA4A4A16
:10086E00CA4A4A4202FE000000FF40504C4340403C
:10087E004F50505C40FF00000000F888888888FFC9
:10088E0088888888F800000000001F080808087F84
:10089E00888888889F80F00080828282828282E2AD
:1008AE00A2928A8682808000000000000040807F35
:1008BE000000000000000000101010FF10900888CB
:1008CE008888FF88888808000444827F01808040E1
:1008DE00432C1028468180000010101010D030FFDD
:1008EE0030D0121C1010000010080402010000FF8E
:0808FE000000010204081000D3
:041C9D0075CEDD2201
:101B7F00EF4E60157D027C08ED1DAA0470011C4A12
:091B8F0070F6EF1F70EA1E80E7FA
:011B9800222A
:101A0300121C1B7FC87E00121A187FC87E00121A90
:051A1300187FC87E00F1
:101A1800EF4E60157D027C00ED1DAA0470011C4A82
:091A280070F6EF1F70EA1E80E762
:011A31002292
:041CA100121B7F2271
:101B6300900006EFF07006FD7FA6121A7090000633
:0C1B7300E0B40107E4FD7FA7121A702205
:101A8A00900006EFF0700DFD7FC8121A70E4FD7F1A
:101A9A00A1121A70900006E0B4010EE4FD7FC01294
:0A1AAA001A70E4FD7FA0121A7022EA
:101A5F00F583E5822BF582E5833AF583E493FF7DE9
:011A6F000175
:101A7000ED6004D2938002C293C2928FCFE5CD3045
:0A1A8000E7FB75CDC0D292D293228D
:081BF600E0FF121BFEA3E0FF5B
:051BFE00E4FD021A7075
:051C8E007D01021A7047
:101B9900AE07EE540FFF121BFEAF06EFC4540F241D
:051BA90010FF021BFE0D
:0C1C0F00AE077F20121BFEAF06021BFE7A
:101BAE00AE05AC077F21121BFEAF04121BFEAF0663
:031BBE00021BFE09
:101BC100AE05AC077F22121BFEAF04121BFEAF064F
:031BD100021BFEF6
:07000300EF4440FF021BFE69
:0C1C1B00AE077F81121BFEAF06021BFE0D
:031CA500021BFE21
:031CA800021BFE1E
:031CAB00021BFE1B
:0C1C2700AE077FA8121BFEAF06021BFEDA
:031CAE00021BFE18
:071C8700EF44B0FF021BFE59
:031CB100021BFE15
:0C1C3300AE077FD3121BFEAF06021BFEA3
:0C1C3F00AE077FD5121BFEAF06021BFE95
:0C1C4B00AE077FD8121BFEAF06021BFE86
:0C1C5700AE077FD9121BFEAF06021BFE79
:0C1C6300AE077FDA121BFEAF06021BFE6C
:0C1C6F00AE077FDB121BFEAF06021BFE5F
:051C93007FE3021BFECF
:0C1C7B00AE077FFD121BFEAF06021BFE31
:021B2500AC070B
:101B2700E4FBAF03121C87E4FF121B99E4FEAF042A
:0D1B3700121C8E0EEEB480F60BEBB408E528
:011B4400227E
:02192200A90713
:10192400AF05AC07EB2401FFE433FEECC39FEE6488
:1019340080F87480985024AF04121C8790005BE0F8
:10194400FF121B99E4FE90005CE0FFEEC39F500879
:0B195400AF01121C8E0E80EE0C80C94B
:01195F002265
:101B0200E4FCAF04121C87E4FF121B99E4FE7F552C
:101B1200121C8E7FAA121C8E0EEEB440F10CECB495
:021B220008E0D9
:011B2400229E
:04131300AE07AC0570
:101317007FA3121BFEAF04121BFEAF03121BFEEED0
:101327001460630460030213E9E4900038F0A3F04B
:10133700EBFF900038E0FCA3E0FDC39FEC94004076
:10134700030213E9AF05120003E4A3F0A3F0900032
:1013570037E0FFC390003BE09F90003AE0940050D5
:1013670011121A14A3E004F070E490003AE004F0BC
:1013770080DC900036E0FF900039E02FF0900038D5
:10138700E03400F080AAE4900038F0A3F0EBFF907F
:101397000038E0FCA3E0FDC39FEC94005044C3EB8E
:1013A7009DFF120003E4A3F0A3F0900037E0FFC312
:1013B70090003BE09F90003AE094005011121A14FD
:1013C700A3E004F070E490003AE004F080DC9000C1
:1013D70036E0FF900039E02FF0900038E03400F05D
:0713E70080ABE4FF020003EC
:10196000AE05EF4426FF121BFEE4FF121BFEAF067E
:10197000121BFE900049E0FF121BFEAF03121BFE7C
:10198000E4FF121BFE900047121BF67F2F121BFE76
:0A19900090004AE0FF7E00021CA157
:1018D500AE07AC057FA3121BFE900024121BF6EE8B
:1018E5002429FF121BFEAF04121BFEAF03121BFEC1
:1018F500900027E0FF121BFE900021E0FF121BFE67
:10190500900026E0FF121BFE900022121BF67F2F8F
:0D191500121BFE900028E0FF7E00021CA1C6
:051C98007F2E021BFE7F
:101A32007FAF121CAEE4900061F0A3F0900061E071
:101A4200FEA3E0FFC394C0EE94005010121A03E00C
:0C1A520004F070E8900061E004F080E017
:011A5E002265
:1019D200900063E4F0A374C0F0900063E0FEA3E023
:1019E200FFD39400EE94004013EF14FF121A03E0A9
:1019F20024FFF0900063E034FFF080DD7FAE021C34
:011A0200AE35
:071ADD00E0FFA3E0FD04F0AF
:101AE400AE07ED24B0FFE4FD121A70EE54F0C454B6
:0E1AF4000F4410FF121A70EE540FFF021A700A
:101BD400E4FD7F8D121A707F14121A707FAF021AFF
:011BE4007090
:101BE500E4FD7F8D121A707F10121A707FAE021AF3
:011BF500707F
:101AB400E4FEEE24B0FFE4FD121A70E4FF121A7083
:101AC4007F10121A70E4FC7D01E4FF121A700CEC12
:081AD400B480F40EEEB408DA50
:011ADC0022E7
:0A14C90090003CEFF0A3EDF0A90342
:1014D300E4900040F090003FE0FFC313900041F020
:1014E300E4FBFAEFB40809A3E4F0A37406F0803434
:1014F30090003FE0FF131313541FFD7C00EF5407CC
:101503007E0060047F0180027F00EF2DFFEE3CFE32
:1015130090003FE0C313FD7C001215CD900042EE16
:10152300F0A3EFF0E924E0900040F090003CE0FFEE
:10153300A3E0FD121AE4E4FAFBD3900043E09B908E
:101543000042E09A4056900041E0FD7C00AF03AEBC
:10155300021215DFED4C700E90003FE06408600648
:1015630090003C121ADD90003FE0FEB40810A3E0A7
:1015730075F006A4240EF582E5F034008014EEB471
:10158300101A900040E075F010A42436F582E5F0BF
:0C1593003402121A5F0BBB00010A809D9D
:01159F002229
:071B4500900065EFF0A90517
:101B4C007F017E00AD0119ED600C900065E0FD7C1D
:061B5C00001215CD80EE21
:011B62002260
:0E13EE00900029EFF0A3EDF0A3EAF0A3EBF0DE
:1013FC00E4900031F0A3F090002EE0B408069000C9
:10140C00317402F0E490002FF090002DE0FF90007A
:10141C002FE0FEC39F40030214C8C3EF9E14FD7F50
:10142C000A121B4590002BE0FCA3E0FDCFCDCFCEE4
:10143C00CCCE1215DF7C007D0A1215DF900030ED4A
:10144C00F0900032E0703C90002DE014FF90002FE3
:10145C00E0FEC39F502DA3E0702390002EE0FCC350
:10146C0013FF900031E02F8EF0A4FF900029E02FA5
:10147C00FFA3E0FD90003FECF07B20803390003226
:10148C007401F090002EE0FEC313FF900031E02FAA
:10149C00FF90002FE0FDEF8DF0A4FF900029E02FCE
:1014AC00FFA3E0FD900030E02430FB90003FEEF015
:0C14BC001214C990002FE004F002141577
:0114C8002201
:1018650090004BEFF0A3EDF0A3EBF0A3EAF0A3E9B2
:01187500F082
:10187600E4900051F090004DE0FBA3E0FAA3E0F9FC
:10188600900051E0F5827583001215A0604090002B
:101896004BE0FFA3E0FD900051E0FE04F08E827560
:1018A60083001215A0FB900050E090003FF0121448
:1018B600C9900050E0FFB4080990004BE02406F000
:0E18C60080B3EFC313FF90004BE02FF080A71C
:0118D40022F1
:0B176800900052EFF0A3EDF0A3EBF0B7
:10177300A3E0FF131313541FFD7C00EF54077E00F7
:1017830060047F0180027F00EF2DFFEE3CFE90009E
:1017930055E0FD7C001215CDA3EEF0A3EFF0E4FBC2
:1017A300FAD3900057E09B900056E09A403890009F
:1017B30055E0FD7C00AF03AE021215DFED4C700661
:1017C300900052121ADD900055E0B41019900054A5
:1017D300E0C43354E02426F582E43408121A5F0B84
:0617E300BB00010A80BBFF
:0117E90022DD
:0B16E300900014EFF0A3EDF0A3EBF07B
:1016EE00E490001BF0A3F0900017E0FF13131354C7
:1016FE001FFEEF540760047F0180027F00EE2F90E3
:10170E000017F0E4FC900017E0FFECC39F504A90E6
:10171E000014E0FFA3E02CFD121AE4E490001DF08B
:10172E00900016E0FF90001DE0C39F502990001816
:10173E00E0FBA3E0FAA3E0F9A3E475F0011216347E
:10174E0085F082F5831215A0FF7D01121A709000AC
:09175E001DE004F080CA0C80AC0F
:01176700225F
:10164A00121C9D7FC87E00121B7FC2B37FC87E001A
:10165A00121B7FD2B3E4FD7FAE121A707FFD121AFD
:10166A00707F12121A707FD5121A707FA0121A7028
:10167A007FA8121A707F3F121A707FD3121A70E471
:10168A00FF121A707F40121A707FA1121A707FC857
:10169A00121A707FDA121A707F12121A707F811270
:1016AA001A707FBF121A707FD9121A707F25121A08
:1016BA00707FDB121A707F34121A707FA4121A70AC
:1016CA007FA6121A70121AB4E4FD7FAF121A70E4E0
:0916DA00FF121B63E4FF021A8AEF
:1015A000BB010CE58229F582E5833AF583E0225000
:1015B00006E92582F8E622BBFE06E92582F8E2224A
:0D15C000E58229F582E5833AF583E4932264
:1015CD00EF8DF0A4A8F0CF8CF0A428CE8DF0A42E32
:0215DD00FE22EC
:1015DF00BC000BBE0029EF8DF084FFADF022E4CCF0
:1015EF00F875F008EF2FFFEE33FEEC33FCEE9DECB9
:1015FF00984005FCEE9DFE0FD5F0E9E4CEFD22EDFF
:10160F00F8F5F0EE8420D21CFEADF075F008EF2F48
:10161F00FFED33FD4007985006D5F0F222C398FD39
:05162F000FD5F0EA22D6
:10163400A3F8E0C5F025F0F0E58215827002158369
:06164400E0C838F0E822C6
:00000001FF
