:020000040800F2
:100000000015002001020008BB130008FF0F0008C4
:10001000B913000845030008DF17000800000000BE
:10002000000000000000000000000000271600088B
:1000300047030008000000002516000829160008E4
:100040001B0200081B0200081B0200081B0200081C
:100050001B0200081B0200081B0200081B0200080C
:100060001B0200081B0200081B0200081B020008FC
:100070001B0200081B0200081B0200081B020008EC
:100080001B0200081B0200081B0200081B020008DC
:100090001B0200081B0200081B0200081B020008CC
:1000A0001B0200081B0200081B0200081B020008BC
:1000B0001B0200081B0200081B0200081B020008AC
:1000C0001B0200081B0200081B0200081B0200089C
:1000D0001B0200081B0200081B0200081B0200088C
:1000E0001B0200081B0200081B02000800F002F8B7
:1000F00000F05CF80AA090E8000C82448344AAF166
:100100000107DA4501D100F051F8AFF2090EBAE863
:100110000F0013F0010F18BFFB1A43F0010318473B
:100120008C210000AC2100000A444FF0000C10F8B4
:10013000013B13F0070408BF10F8014B1D1108BF65
:1001400010F8015B641E05D010F8016B641E01F805
:10015000016BF9D113F0080F1EBF10F8014BAD1C55
:100160000C1B09D16D1E58BF01F801CBFAD505E073
:1001700014F8016B01F8016B6D1EF9D59142D6D3CD
:10018000704700000023002400250026103A28BFF5
:1001900078C1FBD8520728BF30C148BF0B607047F9
:1001A0001FB500F062F81FBD10B510BD00F090F84B
:1001B0001146FFF7F5FF01F0E3FB00F0AEF803B4E2
:1001C000FFF7F2FF03BC00F0B7F800000B49D1F8CD
:1001D00000C04A685CF8043B1068184442F8040BFD
:1001E0008C4528BFA1F1DC0C8A4228BFA1F1DC02BA
:1001F000C1F800C04A6020F000407047980A002013
:100200000948804709480047FEE7FEE7FEE7FEE7AA
:10021000FEE7FEE7FEE7FEE7FEE7FEE704480549E6
:10022000054A064B704700008B160008ED000008D9
:10023000000B0020001500200011002000110020FC
:100240000B4910B5A1F17C020A4CC2E937123721E3
:1002500006E000EB104342F82130074B00FB03405F
:100260000B1EA1F10101F4DC10BD0120E8E7000044
:10027000380A0020E119D666CD0D01004FF00002CA
:1002800000B5134694469646203922BFA0E80C508C
:10029000A0E80C50B1F12001BFF4F7AF090728BF67
:1002A000A0E80C5048BF0CC05DF804EB890028BFE3
:1002B00040F8042B08BF704748BF20F8022B11F00C
:1002C000804F18BF00F8012B704770477047704788
:1002D000754600F02BF8AE4605006946534620F0FF
:1002E0000700854618B020B5FFF798FFBDE820400D
:1002F0004FF000064FF000074FF000084FF0000BE2
:1003000021F00701AC46ACE8C009ACE8C009ACE894
:10031000C009ACE8C0098D46704710B50446AFF37C
:1003200000802046BDE81040FFF749BF00487047F5
:10033000A00A00207047000001491820ABBEFEE76C
:1003400026000200FEE7704772B6FEE770B504466D
:1003500000F0FEF80546601C02D004480078044412
:1003600000F0F6F8401BA042FAD370BD1000002048
:100370002DE9F84FDFF8B8910024A9F1040B2346CA
:100380000F2709F1040AABF1040EC9E00125A540CD
:100390002A40AA427DD1674ED1F804C0ACEB0608D2
:1003A000B44532D014DCBCF1030F3AD009DCBCF107
:1003B000000F2AD0BCF1010F1CD0BCF1020F31D1CB
:1003C0001DE0BCF1110F17D0BCF1120F2AD119E0BA
:1003D000B8F5881F19D006DCB8F5803F15D0B8F500
:1003E000801F1FD111E0B8F5001F0ED0B8F5041F13
:1003F00018D10AE0CB6815E0CB681B1D12E0CB6872
:1004000008330FE0CB680C330CE08B682BB1012B69
:100410004FF0080303D0456104E0042302E00561C6
:1004200000E00023FF2A01D8064601E000F104069F
:100430004FEA840501D9A5F12005D6F8008007FA16
:1004400005FC28EA0C0803FA05F548EA0508C6F891
:1004500000804D68ED0062D5374DAE6946F001066B
:10046000AE61AD6924F0030605F001050095334D3A
:1004700006EB050CDCF80850A607360F07FA06F85D
:1004800025EA0805DFF8B880404503D14FF00008A1
:1004900017E044E0DFF8AC80404502D14FF001089E
:1004A0000FE0DFF8A480404502D14FF0020808E0D9
:1004B000DFF89880404502D14FF0030801E04FF08B
:1004C000040808FA06F848EA0508CCF808804D68E0
:1004D000D9F80060ED024D4601D5164300E0964381
:1004E0002E604D68DAF80060AD02554601D516431E
:1004F00000E096432E604D68DBF80060AD035D467A
:1005000001D5164300E096432E604D68DEF800608A
:10051000ED03754601D5164300E096432E60641C3A
:100520000D682A46E5407FF431AFBDE8F88F000042
:1005300008040140000011100010024000000140BA
:1005400000080140000C014000100140001401406F
:1005500001488068704700001000002070B504005A
:1005600025D094F83D00002520B984F83C50204661
:1005700000F050F9242084F83D002068016821F043
:10058000010101602068016841F4004101602068B8
:10059000016821F40041016000F08AFA4D4A616867
:1005A000914201D84C4900E04C49884201D20120D7
:1005B00070BD4B492368B0FBF1F15E6826F03F0641
:1005C0000E435E606368934206D94FF496735943B5
:1005D0004FF47A73B1FBF3F12368491C1E6A26F0CD
:1005E0003F06314319626168914210D84900401EAC
:1005F000B0FBF1F2521CC2F30B02042A01D2042018
:1006000022E0B0FBF1F0401CC0F30B001CE0A2683C
:10061000F2B301EBC10303EB0116431EB3FBF6F388
:100620005B1C43F480431B0549D092B301EBC1022C
:1006300002EB0111401EB0FBF1F0401CC0F30B00B7
:1006400040F4804040F400402168CA694CF6FF73D2
:100650009A431043C861D4E9071001432068026837
:1006600022F0C00211430160D4E903010143206874
:10067000826848F2FF339A4311438160D4E905014F
:1006800008432168CA6822F0FF021043C86001E0F5
:100690000EE016E02068016841F001010160256468
:1006A000202084F83D00256384F83E50002070BD72
:1006B00001EB4106431EB3FBF6F35B1CB3E70120DD
:1006C000C2E701EB4101401EB0FBF1F0401CC0F35A
:1006D0000B00B7E7A086010080841E0000093D00E2
:1006E00040420F002DE9FF4F83B09A46DDE9119794
:1006F00093460446DDF84080FFF72AFF054694F84C
:100700003D0020287FD11923012240492046009531
:1007100000F00EFD002876D194F83C00012872D03C
:10072000012084F83C0020680168C90703D10168F2
:1007300041F0010101602068016821F4006101605D
:10074000212084F83D00402084F83E0000262664E5
:10075000C4F82480A4F82A90608D20852C48E0629B
:10076000CDE9007553465A462046049900F060FCD6
:1007700070B930E02A463946204600F07FFD58B176
:10078000206C042804D12068016841F400710160E4
:10079000012007B0BDE8F08F606A21680078086129
:1007A000606A401C6062218D491E89B22185628D7C
:1007B000521E628522685369DB435B070BD469B123
:1007C00000781061606A401C6062208D401E2085A8
:1007D000608D401E6085208D0028CBD12A46394689
:1007E000204600F079FC0028CAD154F83D0B01687E
:1007F00041F400710160202004F81E09E677667755
:100800000020C6E7FFE70220C3E700000200100057
:100810000000FFFF10B586B0002100910191029108
:10082000039100680F4988421AD10F4CA06940F02B
:100830000800A061A069694600F008000490C0208B
:10084000009012200190032003900848FFF790FDCC
:10085000E06940F40010E061E06900F400100490E9
:1008600006B010BD0054004000100240000C0140D2
:1008700002488168027811448160704710000020AE
:10088000074810B5016841F010010160032000F035
:1008900067F80F2000F006F800F024F8002010BDE3
:1008A0000020024070B50D4D04464FF47A7128784F
:1008B000B1FBF0F00A490968B1FBF0F000F0BEFAB4
:1008C00048B9102C07D200222146501E00F028F80B
:1008D00000206C6070BD012070BD00001000002081
:1008E0001C0000200C4808B5816941F001018161BC
:1008F000816901F001010091C16941F08051C1613C
:10090000C06900F0805000900448416821F0E06127
:1009100041F00071416008BD00100240000001403C
:10092000F0B40E4B1B680C46C3F30223C3F107055A
:10093000042D00D90425191D072901D2002300E048
:10094000DB1E012606FA05F1491E214099409E4012
:10095000761E16403143F0BC00F066BF0CED00E09F
:10096000064900F0070208684FF6FF03184040EA06
:100970000220034A10430860704700000CED00E0BD
:100980000000FA052DE9F0470F46050061D0434EFF
:10099000306800F00700B84209D2306820F0070044
:1009A00038433060306800F00700B84251D1286801
:1009B0003B4C810712D5400703D5606840F4E060E6
:1009C00060602878000703D5606840F4605060607C
:1009D0006068A96820F0F000084360602878C007CC
:1009E00028D06868012810D02168022810D0890713
:1009F00000292EDA616821F0030101436160FFF7ED
:100A0000A7FD804641F288390DE021688903EFE7B0
:100A10008901EDE7FFF79CFDA0EB0801494502D9EC
:100A20000320BDE8F0876068696800F00C00B0EB57
:100A3000810FEFD1306800F00700B8420BD9306861
:100A400020F0070038433060306800F00700B842FB
:100A500001D00120E5E72878400705D56068E968FE
:100A600020F4E060084360602878000706D56068DD
:100A7000296920F4605040EAC100606000F028F865
:100A80006168084AC1F30311515CC8400649086017
:100A900006480068FFF706FF0020C2E7002002407A
:100AA000001002407A1A00081C00002014000020E8
:100AB0000448054900684968044AC1F30221515CB1
:100AC000C84070471C000020001002408A1A00082D
:100AD0000E4A51680E4801F00C03042B11D0082B6C
:100AE0000FD10C48C1F38343C903C05C0AD55168D8
:100AF000084AC1F34041921E515C054A5043B0FB85
:100B0000F1F070470449484370470000001002406C
:100B100000127A006A1A000800093D002DE9F84F1A
:100B2000040070D02078C04DC00749D06868C0F379
:100B30008100012807D06868C0F38100022809D12C
:100B40006868C00306D52868800339D56068002826
:100B5000E7D035E06068B0F5803F0BD010B1B0F55C
:100B6000A02F11D0286820F480302860286820F455
:100B7000802002E0286840F480302860606890B1EE
:100B8000FFF7E6FC06460AE0286840F4802028606B
:100B9000F0E700BFFFF7DCFC801B642873D82868EF
:100BA0008003F7D50CE0FFF7D3FC064605E000BF55
:100BB000FFF7CEFC801B6428F0D828688003F7D4A8
:100BC00020789A4E80074FF001094FF0000839D580
:100BD000686810F00C0F07D06868C0F38100022825
:100BE00009D16868C00306D42868800714D5206935
:100BF000012808D110E02069B0B1C6F80090FFF7D5
:100C0000A7FC074605E00AE1FFF7A2FCC01B02288B
:100C1000C4D828688007F7D52868616920F0F800F3
:100C200040EAC10028600DE0C6F80080FFF790FCA4
:100C3000074604E0FFF78CFCC01B022823D8286875
:100C40008007F7D4207800072CD57948A169D9B15D
:100C5000C0F80090FFF77CFC074604E0FFF778FC43
:100C6000C01B02280FD8686A8007F7D571484FF477
:100C7000FA510068B0FBF1F0009000BF0098411EEF
:100C80000091FAD20EE080E0C0F80080FFF760FC2F
:100C9000074604E0FFF75CFCC01B022875D8686AB1
:100CA0008007F7D42078400760D5E8690027C000A6
:100CB00008D4E86940F08050E861E869012700F055
:100CC000805000905C480168C90513D401688346D0
:100CD00041F480710160FFF73BFC824606E000BFF3
:100CE000FFF736FCA0EB0A0064284ED8DBF80000C2
:100CF000C005F5D5E06801280AD008B1052813D051
:100D0000286A20F001002862286A20F0040002E02E
:100D1000286A40F001002862E06841F2883B98B1FF
:100D2000FFF716FC82460BE0286A40F004002862B8
:100D3000EEE700BFFFF70CFCA0EB0A0159455AD8BB
:100D4000286A8007F6D50CE0FFF702FC824605E032
:100D5000FFF7FEFBA0EB0A0159454CD8286A800733
:100D6000F6D41FB1E86920F08050E861E06988B3EB
:100D70006968C1F38101022944D00228C6F8608065
:100D800004D0FFF7E5FB044638E034E0FFF7E0FB72
:100D9000074604E0FFF7DCFBC01B02282BD82868BD
:100DA0008001F7D4206AB0F5803F05D16868A1685A
:100DB00020F4003008436860D4E9080108436968FA
:100DC00021F4741108436860C6F86090FFF7C0FB17
:100DD000044606E025E000BFFFF7BAFB001B02282F
:100DE00009D828688001F7D51BE000BFFFF7B0FBEA
:100DF000001B022802D90320BDE8F88F2868800173
:100E0000F4D40EE00128F7D06868226A00F480313B
:100E1000914204D1616A00F47010884201D001202F
:100E2000EAE70020E8E7000000100240000042422C
:100E3000800442421C0000200070004010B5401E9B
:100E4000B0F1807F01D3012010BD4FF0E02460613C
:100E50000F21601700F0E8FC0020A061072020614E
:100E6000002010BD70B590F83C20012A26D0012446
:100E700080F83C40022280F83D2003685A689D6853
:100E800022F070060A6832435A600D4B02689A429B
:100E900008D0B2F1804F05D00A4B9A4202D00A4BDB
:100EA0009A4204D1496825F080031943916080F883
:100EB0003D40002180F83C10084670BD022070BD06
:100EC000002C0140000400400008004010B5040060
:100ED00003D094F83D0010B107E0012010BD0020C0
:100EE00084F83C00204600F01FF8022084F83D0002
:100EF000211D206800F0CAFB012084F8460084F818
:100F00003E0084F83F0084F8400084F8410084F8F3
:100F1000420084F8430084F8440084F8450084F8D3
:100F20003D00002010BD000008B500680649884259
:100F300008D10648816941F400618161806900F44B
:100F40000060009008BD0000002C0140001002402D
:100F500090F83D10012901D001207047022180F84E
:100F60003D100168CA6842F00102CA6000680B497E
:100F7000884208D0B0F1804F05D00949884202D09C
:100F80000849884204D1816801F00701062903D08D
:100F9000016841F00101016000207047002C014010
:100FA000000400400008004070B5044690F83C0082
:100FB000012812D0012584F83C50022084F83D001D
:100FC000204600F0A3FB01004FF0000007D084F89A
:100FD0003D5084F83C00012070BD022070BD2168A6
:100FE000CA6822F04002CA602168CA6822F48042BE
:100FF000CA6084F83D5084F83C00002070BDFEE7D4
:1010000001684A69D24352050FD46FF480624A6185
:10101000002140F8301F202242738173026942F0A0
:101020000402026101730120704700207047000034
:101030002DE9F843044600680D46DDE9089701688C
:101040009846164641F4807101604B4600224FF0ED
:1010500001112046009700F06BF848B12068006845
:10106000C00502D54FF4007020640320BDE8F8836A
:10107000216805F0FE0008613B464A4615492046B6
:1010800000F09EF888B920684169806900903A466E
:101090004946204600F0F2F848B1206C042804D1FB
:1010A0002068016841F4007101600120DEE7F5B2BB
:1010B000B8F1010F09D02168300A08613A46494663
:1010C000204600F0DBF80028E7D120680561002009
:1010D000CCE700000200010070B516460D4604463C
:1010E0001EE02046FFF78CFF08B1012070BD681C90
:1010F00016D0FFF72DFA801BA84200D885B92068CA
:101100004069C04340070BD5002044F8300F202130
:101110006173A073216941F0200121612073E4E72C
:1011200020684069C0434007DBD4002070BD000048
:101130002DE9F047984617460D460446C1F3074689
:10114000DDF820902AE000BFB8F1FF3F26D0FFF77E
:10115000FFF9A0EB0901414502D8B8F1000F1DD1FC
:101160002068012E16D0806925EA00000004000CDA
:1011700012D00020B84211D1002044F8300F2021B5
:101180006173A073216941F0200121612073012066
:10119000BDE8F0874069E7E70120EBE72068012E12
:1011A0000AD0806925EA00000004000C06D0002067
:1011B000B842C9D00020EBE74069F3E70120F7E728
:1011C0002DE9F047984616460D4604464FF00009B3
:1011D0004FF0200AC1F3074723E020684069C0436D
:1011E000400515D42068016841F400710160216850
:1011F0006FF480604861C4F8309084F83DA084F8B2
:101200003E90216C41F00401216484F83C9021E07F
:10121000701C06D0FFF79CF9A0EB0800B04203D881
:1012200016B1012F1FD021E02068012F15D0806951
:1012300025EA00000004000C18D000BF44F8309FDD
:1012400084F80DA084F80E90216941F020012161FD
:1012500084F80C900120BDE8F087406925EA000081
:101260000004000CEAD12068406901E02068806930
:1012700025EA00000004000CAFD1ECE770B516467B
:101280000D4604461EE02046FFF7BAFE08B10120D5
:1012900070BD681C16D0FFF75BF9801BA84200D810
:1012A00085B920684069C04300060BD5002044F88A
:1012B000300F20216173A073216941F02001216169
:1012C0002073E4E720684069C0430006DBD40020B7
:1012D00070BD00000D4808B5816941F020018161B1
:1012E000816901F020010091816941F0040181616F
:1012F000816901F004010091816941F00801816177
:10130000806900F00800009008BD00000010024055
:101310000D4810B50B4901600C49416000214FF4A4
:1013200080428160C0E9031241618161C161016253
:10133000FFF714F9002803D0BDE81040FFF704B808
:1013400010BD00000054004020090020A0860100CC
:1013500010B588B014216846FEF790FF00241548A8
:10136000059413490694C0E900144FF40041C0E904
:101370000241046144618461FFF7A8FD08B1FEF7F2
:10138000E3FF0720CDE9000469460A48FFF70CFE99
:1013900008B1FEF7D9FF059405A906480694FFF7A2
:1013A00061FD002801D0FEF7CFFF08B010BD00009E
:1013B000002C014074090020FEE7FEE7002000F049
:1013C00029B800002DE9F05F83460026DDF828905B
:1013D00090468A46580700D0012000EBD30700242E
:1013E00014E000BF04EB0A00C1B2584600F094F8C4
:1013F000002507E019F806000121761C00F00AF923
:101400006D1CEDB24545F5D3641CE4B2BC42E9D392
:10141000BDE8F09F70B506465FF0000404F1B0002F
:10142000C0B200F0DDF9002000F0DAF9102000F081
:10143000D7F90025304600F0E5F96D1CEDB2802D9E
:10144000F8D3641CE4B2082CE8D370BD10B5642056
:10145000FEF77CFFAE2000F0C3F9202000F0C0F9B9
:10146000102000F0BDF9B02000F0BAF9C82000F05B
:10147000B7F9002000F0B4F9102000F0B1F94020D5
:1014800000F0AEF9812000F0ABF9FF2000F0A8F9E0
:10149000A12000F0A5F9A62000F0A2F9A82000F0F4
:1014A0009FF93F2000F09CF9A42000F099F9D32087
:1014B00000F096F9002000F093F9D52000F090F9A3
:1014C000F02000F08DF9D92000F08AF9222000F0F8
:1014D00087F9DA2000F084F9122000F081F9DB208E
:1014E00000F07EF9202000F07BF98D2000F078F9E3
:1014F000142000F075F9BDE81040AF2000F070B97D
:1015000010B58D2000F06CF9142000F069F9BDE8E9
:101510001040AF2000F064B910B50446B031C8B235
:1015200000F05EF9102040EA141000F059F904F0C0
:101530000F00BDE8104000F053B900002DE9F0475E
:10154000002591468A460446012B22D0DFF8BC8054
:10155000022B24D155E02038C7B27E2C04D90AF1E1
:101560000100002400F0FF0A51462046FFF7D4FF97
:1015700007EB4700002608EB4007B85D00F042F992
:10158000761CF6B2062EF8D3A41D6D1CE4B2EDB2A3
:1015900001E0DFF87C8019F805000028DBD1BDE808
:1015A000F0872038C7B2782C04D90AF10100002452
:1015B00000F0FF0A51462046FFF7AEFF5FF000063D
:1015C00006EB071118F8010000F01CF9761CF6B2C2
:1015D000082EF5D30AF10100C1B22046FFF79CFFA7
:1015E0005FF0000606EB071101EB0800007A00F03F
:1015F00009F9761CF6B2082EF4D308346D1CE4B257
:10160000EDB219F805000028CBD1C8E7BA1C0008D4
:10161000921A000819B1012903D100F0F3B800F0C3
:10162000DFB8704770477047FFF722B930B58FB009
:1016300028216846FEF722FE14210AA8FEF71EFEA6
:1016400001210804CDE90010002402940225049130
:10165000CDE907504FF4E01009906846FFF75EFAB5
:1016600008B172B6FEE70F20CDE90A054FF480609D
:10167000CDE90C4002210AA80E94FFF783F9002857
:1016800001D072B6FEE70FB030BD7047F0B502680A
:10169000164B174C174D4FF08047984205D0B84273
:1016A00003D0A04201D0A84203D122F070064A68BC
:1016B0003243984205D0B84203D0A04201D0A8429C
:1016C00003D122F44074CA6822434C6922F080029C
:1016D000224302608A68C2620A688262984201D12B
:1016E0000969016301214161F0BD0000002C014046
:1016F000000400400008004010B5846842EA03225C
:1017000024F47F440A432243826010BD70B503680D
:1017100000249A6822F070054A682A4322F00705DF
:101720000A682A439A604A6812F00F0F31D11211E9
:10173000082A2ED2DFE802F02E2E2E2E0B212704AF
:101740000B69D1E902210068FFF7D6FF22E00A68A1
:10175000052A10D00268136A156A25F00105156282
:1017600002689569096925F0F00545EA0111916162
:10177000006803620EE0012070BD0A698968006894
:1017800000F00AF806E00A698968006800F015F8B8
:1017900000E00124204670BD10B5036A046A24F0FD
:1017A00001040462846924F0F00444EA021423F082
:1017B0000A020A438461026210BD10B5036A046A1A
:1017C00024F010040462846923F0A00324F470441C
:1017D00044EA023243EA01118261016210BDFEE770
:1017E00001B584B00121642204A88DE807000B46EE
:1017F000002278210248FEF775FF05B000BD000009
:101800002009002001B584B00121642204A88DE8DC
:1018100007000B46402278210248FEF763FF05B01F
:1018200000BD0000200900200907090E002804DB84
:1018300000F1E02080F80014704700F00F0000F184
:10184000E02080F8141D70472DE9F34F81B001238B
:1018500045A200210620FFF771FEDDE90150802638
:1018600000F103091835E8B20721FFF755FE012101
:101870003046FFF7CFFE0A20FEF768FD062427E07A
:1018800080270026604200EB80004FF07F0804F1C3
:10189000010B00F1280AE1B2E8B2FFF73DFE012199
:1018A0003846FFF7B7FE0BF0FF01E8B2FFF734FE52
:1018B00001214046FFF7AEFE802040EA57074FEA7D
:1018C00058085046FEF742FD761C082EE3DB641EE6
:1018D0004C45D5DC8026C9F100003F2700EB800095
:1018E0000024B34609F1010A00F1280809F0FF01BC
:1018F000E8B2FFF711FE01213046FFF78BFE0AF038
:10190000FF01E8B2FFF708FE01213846FFF782FE2B
:101910004BEA5606BF084046FEF718FD641C082C2B
:10192000E4DB164F002400BF04EBC40007EB4010BB
:10193000009002983023C1B201981A46C0B2FFF756
:1019400041FD072C0AD00A20FEF700FD641C082C7C
:10195000EADB641C082C86DBBDE8FE8FBDE8FE4F89
:101960002820FEF7F3BC00004861707079204E65B6
:10197000772059656172204F764F000020000020CB
:10198000FEF77EFFFFF752FEFFF7A4FCFFF7C0FC57
:10199000FFF7DEFCFFF75AFDFFF710FD022322A23E
:1019A00000210120FFF7CAFD012323A203211846CD
:1019B000FFF7C4FD4FF47A70FEF7C8FCFFF7FEFC9A
:1019C000FFF79EFD20496FF00100096808611E487D
:1019D000FFF7BEFA1D4C25274FF03908D4F8040054
:1019E00040F6B835A4F10806B0FBF7F107FB11008B
:1019F00000F02EF8B0FBF8F208FB12022060C6E9F6
:101A000000522946491EFDD20321B0FBF1F301FB30
:101A1000130110463160FFF717FF4FF49670FEF781
:101A200095FC20686060DFE76F6C65642066697212
:101A300065776F726B0000003230323331323331F0
:101A4000204D757368000000740900200800002014
:101A500010B5FEF7F5FBFEF7B9FBF82190FBF1F2AC
:101A600001FB1200401D10BD010202030405060720
:101A700008090A0B0C0D0E0F1010000000000000EA
:101A8000000001020304060708090000000001022B
:101A900003040000000000000000002F0000000010
:101AA0000700070000147F147F1400242A7F2A12E5
:101AB00000626408132300364955225000000503D4
:101AC000000000001C224100000041221C00001404
:101AD000083E08140008083E0808000000A0600046
:101AE00000080808080800006060000000201008D6
:101AF0000402003E5149453E0000427F4000004242
:101B000061514946002141454B31001814127F10A4
:101B1000002745454539003C4A49493000017109D3
:101B2000050300364949493600064949291E000087
:101B3000363600000000563600000008142241002E
:101B4000001414141414000041221408000201515E
:101B5000090600324959513E007C1211127C007F67
:101B600049494936003E41414122007F4141221C02
:101B7000007F49494941007F09090901003E414967
:101B8000497A007F0808087F0000417F410000205B
:101B900040413F01007F08142241007F4040404007
:101BA000007F020C027F007F0408107F003E41414D
:101BB000413E007F09090906003E4151215E007F38
:101BC000091929460046494949310001017F0101AF
:101BD000003F4040403F001F2040201F003F403852
:101BE000403F006314081463000708700807006191
:101BF0005149454300007F41410000552A552A556F
:101C0000000041417F000004020102040040404006
:101C10004040000001020400002054545478007F2A
:101C20004844443800384444442000384444487F01
:101C300000385454541800087E0901020018A4A466
:101C4000A47C007F080404780000447D400000402C
:101C500080847D00007F102844000000417F400008
:101C6000007C04180478007C08040478003844449C
:101C7000443800FC242424180018242418FC007C78
:101C80000804040800485454542000043F444020F1
:101C9000003C4040207C001C2040201C003C403088
:101CA000403C004428102844001CA0A0A07C004414
:101CB00064544C4414141414141400000000000064
:101CC00000000000000000000000000000F800001C
:101CD0000000000000333000000000100C06100C63
:101CE0000600000000000000000040C07840C078FE
:101CF0004000043F04043F040400007088FC0830E6
:101D00000000001820FF211E0000F008F000E0187D
:101D1000000000211C031E211E0000F00888700036
:101D200000001E2123241927211010160E00000088
:101D300000000000000000000000000000E01804A7
:101D40000200000000071820400000020418E00014
:101D500000000040201807000000404080F0804054
:101D600040000202010F01020200000000F000002A
:101D700000000101011F010101000000000000003E
:101D8000000080B0700000000000000000000000B3
:101D9000000000010101010101010000000000003C
:101DA00000000030300000000000000000008060F3
:101DB0001804006018060100000000E01008081078
:101DC000E000000F102020100F00001010F800009D
:101DD00000000020203F2020000000700808088834
:101DE0007000003028242221300000300888884804
:101DF00030000018202020110E000000C02010F834
:101E0000000000070424243F240000F80888880804
:101E100008000019212020110E0000E01088881809
:101E20000000000F112020110E0000380808C838EB
:101E300008000000003F00000000007088080888CB
:101E40007000001C222121221C0000E01008081054
:101E5000E0000000312222110F00000000C0C0008D
:101E60000000000000303000000000000080000092
:101E70000000000080600000000000008040201092
:101E8000080000010204081020004040404040408B
:101E900040000404040404040400000810204080EE
:101EA0000000002010080402010000704808080823
:101EB000F0000000003036010000C030C828E810F3
:101EC000E0000718272423140B000000C038E000AE
:101ED0000000203C23020227382008F888888870F8
:101EE0000000203F202020110E00C0300808080804
:101EF0003800071820202010080008F808080810EB
:101F0000E000203F202020100F0008F88888E80813
:101F10001000203F20202320180008F88888E808B7
:101F20001000203F200003000000C03008080838DF
:101F3000000007182020221E020008F808000008F0
:101F4000F808203F210101213F20000808F8080877
:101F500000000020203F2020000000000808F808B2
:101F60000800C08080807F00000008F888C0281822
:101F70000800203F20012638200008F80800000053
:101F80000000203F20202020300008F8F800F8F85A
:101F90000800203F003F003F200008F830C0000844
:101FA000F808203F200007183F00E010080808103C
:101FB000E0000F10202020100F0008F80808080883
:101FC000F000203F210101010000E0100808081086
:101FD000E0000F18242438504F0008F888888888BB
:101FE0007000203F2000030C302000708808080893
:101FF00038000038202121221C00180808F80808A1
:1020000018000000203F2000000008F80800000829
:10201000F808001F202020201F000878880000C832
:102020003808000007380E010000F80800F8000822
:10203000F800033C0700073C03000818688080682C
:10204000180820302C03032C30200838C800C8386A
:1020500008000000203F2000000010080808C838D1
:1020600008002038262120201800000000FE02026F
:1020700002000000007F40404000000C30C0000023
:102080000000000000010638C00000020202FE004D
:102090000000004040407F000000000004020202F7
:1020A000040000000000000000000000000000002C
:1020B0000000808080808080808000020204000018
:1020C0000000000000000000000000008080808010
:1020D00000000019242222223F2008F800808000FE
:1020E0000000003F112020110E00000000808080C1
:1020F0000000000E112020201100000000808088C8
:10210000F800000E112020103F2000008080808009
:102110000000001F222222221300008080F0888805
:1021200088180020203F2020000000008080808050
:102130008000006B94949493600008F80080808085
:102140000000203F210000203F20008098980000E0
:1021500000000020203F2020000000000080989810
:10216000000000C08080807F000008F800008080B0
:102170008000203F24022D302000000808F80000D5
:1021800000000020203F2020000080808080808090
:102190008000203F20003F20003F80800080808022
:1021A0000000203F210000203F2000008080808030
:1021B0000000001F202020201F0080800080800061
:1021C000000080FFA12020110E0000000080808010
:1021D0008000000E112020A0FF8080808000808081
:1021E000800020203F2120000100000080808080AE
:1021F00080000033242424241900008080E08080A3
:1022000000000000001F20200000808000000080EF
:102210008000001F202020103F2080808000008050
:10222000808000010E300806010080800080008060
:1022300080800F300C030C300F0000808000808005
:1022400080000020312E0E31200080808000008030
:10225000808080818E7018060100008080808080E0
:1022600080000021302C2221300000000000807C02
:10227000020200000000003F404000000000FF009C
:10228000000000000000FF0000000002027C80004F
:1022900000000040403F0000000000060101020273
:1022A000040400000000000000000000CC22000830
:1022B0000000002020090000280100081025000867
:1022C00020090020E00B00008401000881727F32A9
:1022D000018210037624F400082980C0E0E0E0C009
:1022E000800008B903070F0F0F07034A800101237D
:1022F0008EE0F8FCFEFF01051DFEFCF8E09C0F3FA0
:102300007F2F0621FFFF7F3F0F4C01010301038256
:1023100001013320C01B04F8FA32102B806006093B
:10232000182D280D448888F0F9FEFCFCFFFEFEFF06
:10233000071DF8E8444001021720480A048242427F
:10234000273F7F7FFF010009207F7F5F4F840404C8
:10235000082B0C0303110B1B010E8D013B2B40803E
:10236000EC011B491C3C0418202A21131FE02AFF02
:102370001706144020180601181B01010202828270
:102380008484889011222C5060C087FEC1B088469A
:102390004120201001BE08080404025F1F40404194
:1023A00041212019F81B0804854523936B1D07FF65
:1023B0003BC70B132545850909111222424242826F
:1023C000931A40304D040281608212FF2C010EF0FE
:1023D0007907210204081020403A0FA6011D5A4037
:1023E000ED2A0858415BE0107AE98B290149F7286A
:1023F00009020C106080011EE02E131E011808C097
:10240000201804020180E0EA20321808814142428B
:10241000848488538986120319D20A1201961943BB
:10242000D8082020101010884849111A05017E098B
:102430000A0A121219194219433A104B46806018C1
:1024400004031AFC5E1C0C7080A2EC040830C191DD
:102450007A027C4A1FD04A0EF301111A20011C4057
:102460004040F64B0478FB19F1692CBA806019FDE5
:10247000192959252B0304E661596C2A0C7519E0BA
:10248000F129C40119A91C0808150402824141213F
:1024900021A9811C242444016A48AC4680402010B4
:1024A00008E2C029D22C081020070912706A04BC67
:1024B000115A3FB03B010647BB0102466540202050
:1024C00020840204181B3008FD597E89EE1A80FB17
:1024D000E9FC0912EE3954BA40FA0125DE1008046D
:1024E0000480CF01161E8088880810B22A01640972
:1024F0001C32691E392B215B04029783300E5A70FF
:10250000232D020418202903FF020C0127000000DC
:04000005080000ED02
:00000001FF
